{
  "_format": "hh-sol-artifact-1",
  "contractName": "RButton",
  "sourceName": "contracts/RButton.sol",
  "abi": [
    {
      "inputs": [],
      "stateMutability": "payable",
      "type": "constructor"
    },
    {
      "anonymous": false,
      "inputs": [
        {
          "indexed": false,
          "internalType": "address",
          "name": "depositer",
          "type": "address"
        },
        {
          "indexed": false,
          "internalType": "uint256",
          "name": "depositBlock",
          "type": "uint256"
        },
        {
          "indexed": false,
          "internalType": "bool",
          "name": "success",
          "type": "bool"
        }
      ],
      "name": "Deposit",
      "type": "event"
    },
    {
      "anonymous": false,
      "inputs": [
        {
          "indexed": false,
          "internalType": "address",
          "name": "sender",
          "type": "address"
        },
        {
          "indexed": false,
          "internalType": "bool",
          "name": "refunded",
          "type": "bool"
        }
      ],
      "name": "Refund",
      "type": "event"
    },
    {
      "anonymous": false,
      "inputs": [
        {
          "indexed": false,
          "internalType": "address",
          "name": "winner",
          "type": "address"
        },
        {
          "indexed": false,
          "internalType": "uint256",
          "name": "claimBlock",
          "type": "uint256"
        },
        {
          "indexed": false,
          "internalType": "uint256",
          "name": "totalEth",
          "type": "uint256"
        },
        {
          "indexed": false,
          "internalType": "bool",
          "name": "success",
          "type": "bool"
        }
      ],
      "name": "Withdraw",
      "type": "event"
    },
    {
      "stateMutability": "nonpayable",
      "type": "fallback"
    },
    {
      "inputs": [],
      "name": "checkVault",
      "outputs": [
        {
          "internalType": "uint256",
          "name": "total",
          "type": "uint256"
        }
      ],
      "stateMutability": "view",
      "type": "function"
    },
    {
      "inputs": [],
      "name": "chest",
      "outputs": [
        {
          "internalType": "address",
          "name": "treasure",
          "type": "address"
        },
        {
          "internalType": "enum RButton.Access",
          "name": "access",
          "type": "uint8"
        },
        {
          "internalType": "uint256",
          "name": "value",
          "type": "uint256"
        }
      ],
      "stateMutability": "view",
      "type": "function"
    },
    {
      "inputs": [],
      "name": "claimTreasure",
      "outputs": [],
      "stateMutability": "payable",
      "type": "function"
    },
    {
      "inputs": [],
      "name": "getAccess",
      "outputs": [
        {
          "internalType": "bool",
          "name": "open",
          "type": "bool"
        }
      ],
      "stateMutability": "view",
      "type": "function"
    },
    {
      "inputs": [
        {
          "internalType": "address",
          "name": "player",
          "type": "address"
        }
      ],
      "name": "loadPlayers",
      "outputs": [],
      "stateMutability": "nonpayable",
      "type": "function"
    },
    {
      "inputs": [],
      "name": "openChest",
      "outputs": [
        {
          "internalType": "bool",
          "name": "success",
          "type": "bool"
        }
      ],
      "stateMutability": "nonpayable",
      "type": "function"
    },
    {
      "inputs": [],
      "name": "pressButton",
      "outputs": [],
      "stateMutability": "payable",
      "type": "function"
    },
    {
      "inputs": [],
      "name": "test",
      "outputs": [],
      "stateMutability": "nonpayable",
      "type": "function"
    },
    {
      "stateMutability": "payable",
      "type": "receive"
    }
  ],
  "bytecode": "0x6080604052600030905060405180606001604052808273ffffffffffffffffffffffffffffffffffffffff16815260200160018081111561003c57fe5b81526020016000815250600460008201518160000160006101000a81548173ffffffffffffffffffffffffffffffffffffffff021916908373ffffffffffffffffffffffffffffffffffffffff16021790555060208201518160000160146101000a81548160ff021916908360018111156100b357fe5b021790555060408201518160010155905050506114ee806100d56000396000f3fe60806040526004361061007f5760003560e01c8063c8b5da661161004e578063c8b5da6614610298578063f335adb0146102a2578063f7ca8431146102ac578063f8a8fd6d146102d957610186565b80633018d14f1461019557806364026ac0146101c05780636f49a3c01461021a578063c28b468f1461024757610186565b36610186576100c36040518060400160405280600e81526020017f46756e64732053656e742062793a000000000000000000000000000000000000815250336102f0565b60003373ffffffffffffffffffffffffffffffffffffffff163460405180600001905060006040518083038185875af1925050503d8060008114610123576040519150601f19603f3d011682016040523d82523d6000602084013e610128565b606091505b505090507f58b58f4b92f1c9fcc1002e781d496e6dc469da827fb41e5b92032ba9f97fc3c13382604051808373ffffffffffffffffffffffffffffffffffffffff16815260200182151581526020019250505060405180910390a150005b34801561019257600080fd5b50005b3480156101a157600080fd5b506101aa61040d565b6040518082815260200191505060405180910390f35b3480156101cc57600080fd5b506101d5610415565b604051808473ffffffffffffffffffffffffffffffffffffffff16815260200183600181111561020157fe5b8152602001828152602001935050505060405180910390f35b34801561022657600080fd5b5061022f61045a565b60405180821515815260200191505060405180910390f35b34801561025357600080fd5b506102966004803603602081101561026a57600080fd5b81019080803573ffffffffffffffffffffffffffffffffffffffff169060200190929190505050610489565b005b6102a06104e4565b005b6102aa61081e565b005b3480156102b857600080fd5b506102c1610c1b565b60405180821515815260200191505060405180910390f35b3480156102e557600080fd5b506102ee610c55565b005b610409828260405160240180806020018373ffffffffffffffffffffffffffffffffffffffff168152602001828103825284818151815260200191508051906020019080838360005b83811015610354578082015181840152602081019050610339565b50505050905090810190601f1680156103815780820380516001836020036101000a031916815260200191505b5093505050506040516020818303038152906040527f319af333000000000000000000000000000000000000000000000000000000007bffffffffffffffffffffffffffffffffffffffffffffffffffffffff19166020820180517bffffffffffffffffffffffffffffffffffffffffffffffffffffffff8381831617835250505050610ca7565b5050565b600047905090565b60048060000160009054906101000a900473ffffffffffffffffffffffffffffffffffffffff16908060000160149054906101000a900460ff16908060010154905083565b600080600460000160146101000a81548160ff0219169083600181111561047d57fe5b02179055506001905090565b6001600760008373ffffffffffffffffffffffffffffffffffffffff1673ffffffffffffffffffffffffffffffffffffffff16815260200190815260200160002060006101000a81548160ff02191690831515021790555050565b600760003373ffffffffffffffffffffffffffffffffffffffff1673ffffffffffffffffffffffffffffffffffffffff16815260200190815260200160002060009054906101000a900460ff166105a3576040517f08c379a00000000000000000000000000000000000000000000000000000000081526004018080602001828103825260118152602001807f4e6f2061636365737320616c6c6f77656400000000000000000000000000000081525060200191505060405180910390fd5b670de0b6b3a76400003414610620576040517f08c379a00000000000000000000000000000000000000000000000000000000081526004018080602001828103825260158152602001807f4d6f72652045746865722069732072657175697265000000000000000000000081525060200191505060405180910390fd5b6000600181111561062d57fe5b600460000160149054906101000a900460ff16600181111561064b57fe5b146106be576040517f08c379a000000000000000000000000000000000000000000000000000000000815260040180806020018281038252600c8152602001807f5661756c7420636c6f736564000000000000000000000000000000000000000081525060200191505060405180910390fd5b6106d433436000610cd09092919063ffffffff16565b60006106df34610ec7565b905060004390506107096040518060600160405280602c815260200161148d602c91393383610ee5565b6107486040518060400160405280601d81526020017f746865206465706f73697420776173206120737563636573733a2025730000008152508361100b565b7f693c1828300d1cab0919b948d714897f817e305af51c026ad14233b6a8939adb338284604051808473ffffffffffffffffffffffffffffffffffffffff1681526020018381526020018215158152602001935050505060405180910390a18161081a576040517f08c379a00000000000000000000000000000000000000000000000000000000081526004018080602001828103825260178152602001807f4661696c656420746f206465706f73697420457468657200000000000000000081525060200191505060405180910390fd5b5050565b600080610829611114565b91509150600060028201905060011515600760003373ffffffffffffffffffffffffffffffffffffffff1673ffffffffffffffffffffffffffffffffffffffff16815260200190815260200160002060009054906101000a900460ff161515146108fb576040517f08c379a00000000000000000000000000000000000000000000000000000000081526004018080602001828103825260138152602001807f4f6e6c792047616d65727320616c6c6f7765640000000000000000000000000081525060200191505060405180910390fd5b8273ffffffffffffffffffffffffffffffffffffffff163373ffffffffffffffffffffffffffffffffffffffff161461097f576040517f08c379a00000000000000000000000000000000000000000000000000000000081526004018080602001828103825260268152602001806114676026913960400191505060405180910390fd5b8043116109f4576040517f08c379a000000000000000000000000000000000000000000000000000000000815260040180806020018281038252601c8152602001807f496e73756666696369656e742074696d6520686173207061737365640000000081525060200191505060405180910390fd5b60003073ffffffffffffffffffffffffffffffffffffffff16633018d14f6040518163ffffffff1660e01b815260040160206040518083038186803b158015610a3c57600080fd5b505afa158015610a50573d6000803e3d6000fd5b505050506040513d6020811015610a6657600080fd5b810190808051906020019092919050505011610aea576040517f08c379a00000000000000000000000000000000000000000000000000000000081526004018080602001828103825260198152602001807f4e6f20747265617375726520696e20746869732063686573740000000000000081525060200191505060405180910390fd5b600080610af6336111eb565b91509150610b3a6040518060400160405280601d81526020017f257320617474656d70747320746f20636c61696d2074726561737572650000008152503383610ee5565b7fb97e775637eca8401af330efee0810af7079bafae27761741e09caa14db8d27233438385604051808573ffffffffffffffffffffffffffffffffffffffff168152602001848152602001838152602001821515815260200194505050505060405180910390a181610c14576040517f08c379a00000000000000000000000000000000000000000000000000000000081526004018080602001828103825260148152602001807f5472656173757265206e6f7420636c61696d656400000000000000000000000081525060200191505060405180910390fd5b5050505050565b6000806001811115610c2957fe5b600460000160149054906101000a900460ff166001811115610c4757fe5b1415610c5257600190505b90565b610c946040518060400160405280601581526020017f496e6372656d656e74696e6720426c6f636b20257300000000000000000000008152504361135f565b6001600660008282540192505081905550565b60008151905060006a636f6e736f6c652e6c6f679050602083016000808483855afa5050505050565b8260030160008373ffffffffffffffffffffffffffffffffffffffff1673ffffffffffffffffffffffffffffffffffffffff16815260200190815260200160002060009054906101000a900460ff1615610d6f57808360010160008473ffffffffffffffffffffffffffffffffffffffff1673ffffffffffffffffffffffffffffffffffffffff16815260200190815260200160002081905550610ec2565b60018360030160008473ffffffffffffffffffffffffffffffffffffffff1673ffffffffffffffffffffffffffffffffffffffff16815260200190815260200160002060006101000a81548160ff021916908315150217905550808360010160008473ffffffffffffffffffffffffffffffffffffffff1673ffffffffffffffffffffffffffffffffffffffff1681526020019081526020016000208190555082600001805490508360020160008473ffffffffffffffffffffffffffffffffffffffff1673ffffffffffffffffffffffffffffffffffffffff1681526020019081526020016000208190555082600001829080600181540180825580915050600190039060005260206000200160009091909190916101000a81548173ffffffffffffffffffffffffffffffffffffffff021916908373ffffffffffffffffffffffffffffffffffffffff1602179055505b505050565b60008160046001016000828254019250508190555060019050919050565b61100683838360405160240180806020018473ffffffffffffffffffffffffffffffffffffffff168152602001838152602001828103825285818151815260200191508051906020019080838360005b83811015610f50578082015181840152602081019050610f35565b50505050905090810190601f168015610f7d5780820380516001836020036101000a031916815260200191505b509450505050506040516020818303038152906040527f07c81217000000000000000000000000000000000000000000000000000000007bffffffffffffffffffffffffffffffffffffffffffffffffffffffff19166020820180517bffffffffffffffffffffffffffffffffffffffffffffffffffffffff8381831617835250505050610ca7565b505050565b611110828260405160240180806020018315158152602001828103825284818151815260200191508051906020019080838360005b8381101561105b578082015181840152602081019050611040565b50505050905090810190601f1680156110885780820380516001836020036101000a031916815260200191505b5093505050506040516020818303038152906040527fc3b55635000000000000000000000000000000000000000000000000000000007bffffffffffffffffffffffffffffffffffffffffffffffffffffffff19166020820180517bffffffffffffffffffffffffffffffffffffffffffffffffffffffff8381831617835250505050610ca7565b5050565b600080600060016000800180549050039050600080600001828154811061113757fe5b9060005260206000200160009054906101000a900473ffffffffffffffffffffffffffffffffffffffff169050600060010160008273ffffffffffffffffffffffffffffffffffffffff1673ffffffffffffffffffffffffffffffffffffffff1681526020019081526020016000205492506000800182815481106111b857fe5b9060005260206000200160009054906101000a900473ffffffffffffffffffffffffffffffffffffffff16935050509091565b6000803073ffffffffffffffffffffffffffffffffffffffff16633018d14f6040518163ffffffff1660e01b815260040160206040518083038186803b15801561123457600080fd5b505afa158015611248573d6000803e3d6000fd5b505050506040513d602081101561125e57600080fd5b810190808051906020019092919050505090508273ffffffffffffffffffffffffffffffffffffffff163073ffffffffffffffffffffffffffffffffffffffff16633018d14f6040518163ffffffff1660e01b815260040160206040518083038186803b1580156112ce57600080fd5b505afa1580156112e2573d6000803e3d6000fd5b505050506040513d60208110156112f857600080fd5b810190808051906020019092919050505060405180600001905060006040518083038185875af1925050503d806000811461134f576040519150601f19603f3d011682016040523d82523d6000602084013e611354565b606091505b505080925050915091565b61146282826040516024018080602001838152602001828103825284818151815260200191508051906020019080838360005b838110156113ad578082015181840152602081019050611392565b50505050905090810190601f1680156113da5780820380516001836020036101000a031916815260200191505b5093505050506040516020818303038152906040527f9710a9d0000000000000000000000000000000000000000000000000000000007bffffffffffffffffffffffffffffffffffffffffffffffffffffffff19166020820180517bffffffffffffffffffffffffffffffffffffffffffffffffffffffff8381831617835250505050610ca7565b505056fe436c61696d696e67206e6f7420617661696c61626c6520746f207468697320616464726573732573206465706f736974656420657468657220696e746f20636f6e747261637420617420626c6f636b202573a2646970667358221220fa1dec3555d99086f5661faafc7a44c6ef97229a08fab4e75855a7e5142d744d64736f6c63430007060033",
  "linkReferences": {},
  "deployedLinkReferences": {}
}