{
  "_format": "hh-sol-artifact-1",
  "contractName": "RButton",
  "sourceName": "contracts/RButton.sol",
  "abi": [
    {
      "inputs": [],
      "stateMutability": "payable",
      "type": "constructor"
    },
    {
      "anonymous": false,
      "inputs": [
        {
          "indexed": false,
          "internalType": "address",
          "name": "depositer",
          "type": "address"
        },
        {
          "indexed": false,
          "internalType": "uint256",
          "name": "depositBlock",
          "type": "uint256"
        },
        {
          "indexed": false,
          "internalType": "bool",
          "name": "success",
          "type": "bool"
        }
      ],
      "name": "Deposit",
      "type": "event"
    },
    {
      "anonymous": false,
      "inputs": [
        {
          "indexed": false,
          "internalType": "address",
          "name": "sender",
          "type": "address"
        },
        {
          "indexed": false,
          "internalType": "bool",
          "name": "refunded",
          "type": "bool"
        }
      ],
      "name": "Refund",
      "type": "event"
    },
    {
      "anonymous": false,
      "inputs": [
        {
          "indexed": false,
          "internalType": "address",
          "name": "winner",
          "type": "address"
        },
        {
          "indexed": false,
          "internalType": "uint256",
          "name": "claimBlock",
          "type": "uint256"
        },
        {
          "indexed": false,
          "internalType": "uint256",
          "name": "totalEth",
          "type": "uint256"
        },
        {
          "indexed": false,
          "internalType": "bool",
          "name": "success",
          "type": "bool"
        }
      ],
      "name": "Withdraw",
      "type": "event"
    },
    {
      "stateMutability": "nonpayable",
      "type": "fallback"
    },
    {
      "inputs": [],
      "name": "checkVault",
      "outputs": [
        {
          "internalType": "uint256",
          "name": "total",
          "type": "uint256"
        }
      ],
      "stateMutability": "view",
      "type": "function"
    },
    {
      "inputs": [],
      "name": "chest",
      "outputs": [
        {
          "internalType": "address",
          "name": "treasure",
          "type": "address"
        },
        {
          "internalType": "enum RButton.Access",
          "name": "access",
          "type": "uint8"
        },
        {
          "internalType": "uint256",
          "name": "value",
          "type": "uint256"
        }
      ],
      "stateMutability": "view",
      "type": "function"
    },
    {
      "inputs": [],
      "name": "claimTreasure",
      "outputs": [],
      "stateMutability": "payable",
      "type": "function"
    },
    {
      "inputs": [],
      "name": "pressButton",
      "outputs": [],
      "stateMutability": "payable",
      "type": "function"
    },
    {
      "inputs": [],
      "name": "test",
      "outputs": [],
      "stateMutability": "nonpayable",
      "type": "function"
    },
    {
      "stateMutability": "payable",
      "type": "receive"
    }
  ],
  "bytecode": "0x6080604052600030905060405180606001604052808273ffffffffffffffffffffffffffffffffffffffff1681526020016000600181111561003d57fe5b81526020016000815250600460008201518160000160006101000a81548173ffffffffffffffffffffffffffffffffffffffff021916908373ffffffffffffffffffffffffffffffffffffffff16021790555060208201518160000160146101000a81548160ff021916908360018111156100b457fe5b021790555060408201518160010155905050506111d2806100d66000396000f3fe60806040526004361061004e5760003560e01c80633018d14f1461016457806364026ac01461018f578063c8b5da66146101e9578063f335adb0146101f3578063f8a8fd6d146101fd57610155565b36610155576100926040518060400160405280600e81526020017f46756e64732053656e742062793a00000000000000000000000000000000000081525033610214565b60003373ffffffffffffffffffffffffffffffffffffffff163460405180600001905060006040518083038185875af1925050503d80600081146100f2576040519150601f19603f3d011682016040523d82523d6000602084013e6100f7565b606091505b505090507f58b58f4b92f1c9fcc1002e781d496e6dc469da827fb41e5b92032ba9f97fc3c13382604051808373ffffffffffffffffffffffffffffffffffffffff16815260200182151581526020019250505060405180910390a150005b34801561016157600080fd5b50005b34801561017057600080fd5b50610179610331565b6040518082815260200191505060405180910390f35b34801561019b57600080fd5b506101a4610339565b604051808473ffffffffffffffffffffffffffffffffffffffff1681526020018360018111156101d057fe5b8152602001828152602001935050505060405180910390f35b6101f161037e565b005b6101fb6105f9565b005b34801561020957600080fd5b50610212610930565b005b61032d828260405160240180806020018373ffffffffffffffffffffffffffffffffffffffff168152602001828103825284818151815260200191508051906020019080838360005b8381101561027857808201518184015260208101905061025d565b50505050905090810190601f1680156102a55780820380516001836020036101000a031916815260200191505b5093505050506040516020818303038152906040527f319af333000000000000000000000000000000000000000000000000000000007bffffffffffffffffffffffffffffffffffffffffffffffffffffffff19166020820180517bffffffffffffffffffffffffffffffffffffffffffffffffffffffff8381831617835250505050610982565b5050565b600047905090565b60048060000160009054906101000a900473ffffffffffffffffffffffffffffffffffffffff16908060000160149054906101000a900460ff16908060010154905083565b670de0b6b3a764000034146103fb576040517f08c379a00000000000000000000000000000000000000000000000000000000081526004018080602001828103825260158152602001807f4d6f72652045746865722069732072657175697265000000000000000000000081525060200191505060405180910390fd5b6000600181111561040857fe5b600460000160149054906101000a900460ff16600181111561042657fe5b14610499576040517f08c379a000000000000000000000000000000000000000000000000000000000815260040180806020018281038252600c8152602001807f5661756c7420636c6f736564000000000000000000000000000000000000000081525060200191505060405180910390fd5b6104af334360006109ab9092919063ffffffff16565b60006104ba34610ba2565b905060004390506104e46040518060600160405280602c8152602001611171602c91393383610bc0565b6105236040518060400160405280601d81526020017f746865206465706f73697420776173206120737563636573733a20257300000081525083610ce6565b7f693c1828300d1cab0919b948d714897f817e305af51c026ad14233b6a8939adb338284604051808473ffffffffffffffffffffffffffffffffffffffff1681526020018381526020018215158152602001935050505060405180910390a1816105f5576040517f08c379a00000000000000000000000000000000000000000000000000000000081526004018080602001828103825260178152602001807f4661696c656420746f206465706f73697420457468657200000000000000000081525060200191505060405180910390fd5b5050565b600080610604610def565b9150915060006002820190508273ffffffffffffffffffffffffffffffffffffffff163373ffffffffffffffffffffffffffffffffffffffff1614610694576040517f08c379a000000000000000000000000000000000000000000000000000000000815260040180806020018281038252602f815260200180611142602f913960400191505060405180910390fd5b804311610709576040517f08c379a000000000000000000000000000000000000000000000000000000000815260040180806020018281038252601c8152602001807f496e73756666696369656e742074696d6520686173207061737365640000000081525060200191505060405180910390fd5b60003073ffffffffffffffffffffffffffffffffffffffff16633018d14f6040518163ffffffff1660e01b815260040160206040518083038186803b15801561075157600080fd5b505afa158015610765573d6000803e3d6000fd5b505050506040513d602081101561077b57600080fd5b8101908080519060200190929190505050116107ff576040517f08c379a00000000000000000000000000000000000000000000000000000000081526004018080602001828103825260198152602001807f4e6f20747265617375726520696e20746869732063686573740000000000000081525060200191505060405180910390fd5b60008061080b33610ec6565b9150915061084f6040518060400160405280601d81526020017f257320617474656d70747320746f20636c61696d2074726561737572650000008152503383610bc0565b7fb97e775637eca8401af330efee0810af7079bafae27761741e09caa14db8d27233438385604051808573ffffffffffffffffffffffffffffffffffffffff168152602001848152602001838152602001821515815260200194505050505060405180910390a181610929576040517f08c379a00000000000000000000000000000000000000000000000000000000081526004018080602001828103825260148152602001807f5472656173757265206e6f7420636c61696d656400000000000000000000000081525060200191505060405180910390fd5b5050505050565b61096f6040518060400160405280601581526020017f496e6372656d656e74696e6720426c6f636b20257300000000000000000000008152504361103a565b6001600660008282540192505081905550565b60008151905060006a636f6e736f6c652e6c6f679050602083016000808483855afa5050505050565b8260030160008373ffffffffffffffffffffffffffffffffffffffff1673ffffffffffffffffffffffffffffffffffffffff16815260200190815260200160002060009054906101000a900460ff1615610a4a57808360010160008473ffffffffffffffffffffffffffffffffffffffff1673ffffffffffffffffffffffffffffffffffffffff16815260200190815260200160002081905550610b9d565b60018360030160008473ffffffffffffffffffffffffffffffffffffffff1673ffffffffffffffffffffffffffffffffffffffff16815260200190815260200160002060006101000a81548160ff021916908315150217905550808360010160008473ffffffffffffffffffffffffffffffffffffffff1673ffffffffffffffffffffffffffffffffffffffff1681526020019081526020016000208190555082600001805490508360020160008473ffffffffffffffffffffffffffffffffffffffff1673ffffffffffffffffffffffffffffffffffffffff1681526020019081526020016000208190555082600001829080600181540180825580915050600190039060005260206000200160009091909190916101000a81548173ffffffffffffffffffffffffffffffffffffffff021916908373ffffffffffffffffffffffffffffffffffffffff1602179055505b505050565b60008160046001016000828254019250508190555060019050919050565b610ce183838360405160240180806020018473ffffffffffffffffffffffffffffffffffffffff168152602001838152602001828103825285818151815260200191508051906020019080838360005b83811015610c2b578082015181840152602081019050610c10565b50505050905090810190601f168015610c585780820380516001836020036101000a031916815260200191505b509450505050506040516020818303038152906040527f07c81217000000000000000000000000000000000000000000000000000000007bffffffffffffffffffffffffffffffffffffffffffffffffffffffff19166020820180517bffffffffffffffffffffffffffffffffffffffffffffffffffffffff8381831617835250505050610982565b505050565b610deb828260405160240180806020018315158152602001828103825284818151815260200191508051906020019080838360005b83811015610d36578082015181840152602081019050610d1b565b50505050905090810190601f168015610d635780820380516001836020036101000a031916815260200191505b5093505050506040516020818303038152906040527fc3b55635000000000000000000000000000000000000000000000000000000007bffffffffffffffffffffffffffffffffffffffffffffffffffffffff19166020820180517bffffffffffffffffffffffffffffffffffffffffffffffffffffffff8381831617835250505050610982565b5050565b6000806000600160008001805490500390506000806000018281548110610e1257fe5b9060005260206000200160009054906101000a900473ffffffffffffffffffffffffffffffffffffffff169050600060010160008273ffffffffffffffffffffffffffffffffffffffff1673ffffffffffffffffffffffffffffffffffffffff168152602001908152602001600020549250600080018281548110610e9357fe5b9060005260206000200160009054906101000a900473ffffffffffffffffffffffffffffffffffffffff16935050509091565b6000803073ffffffffffffffffffffffffffffffffffffffff16633018d14f6040518163ffffffff1660e01b815260040160206040518083038186803b158015610f0f57600080fd5b505afa158015610f23573d6000803e3d6000fd5b505050506040513d6020811015610f3957600080fd5b810190808051906020019092919050505090508273ffffffffffffffffffffffffffffffffffffffff163073ffffffffffffffffffffffffffffffffffffffff16633018d14f6040518163ffffffff1660e01b815260040160206040518083038186803b158015610fa957600080fd5b505afa158015610fbd573d6000803e3d6000fd5b505050506040513d6020811015610fd357600080fd5b810190808051906020019092919050505060405180600001905060006040518083038185875af1925050503d806000811461102a576040519150601f19603f3d011682016040523d82523d6000602084013e61102f565b606091505b505080925050915091565b61113d82826040516024018080602001838152602001828103825284818151815260200191508051906020019080838360005b8381101561108857808201518184015260208101905061106d565b50505050905090810190601f1680156110b55780820380516001836020036101000a031916815260200191505b5093505050506040516020818303038152906040527f9710a9d0000000000000000000000000000000000000000000000000000000007bffffffffffffffffffffffffffffffffffffffffffffffffffffffff19166020820180517bffffffffffffffffffffffffffffffffffffffffffffffffffffffff8381831617835250505050610982565b505056fe436c61696d696e67207472656173757265206e6f7420617661696c61626c6520746f207468697320616464726573732573206465706f736974656420657468657220696e746f20636f6e747261637420617420626c6f636b202573a2646970667358221220137cbdbaa3434636de79d3316e66ae270f4bc0f02fe4b02d1c274d0a51e9001064736f6c63430007060033",
  "linkReferences": {},
  "deployedLinkReferences": {}
}