{
  "_format": "hh-sol-artifact-1",
  "contractName": "RButton",
  "sourceName": "contracts/RButton.sol",
  "abi": [
    {
      "inputs": [],
      "stateMutability": "payable",
      "type": "constructor"
    },
    {
      "anonymous": false,
      "inputs": [
        {
          "indexed": false,
          "internalType": "address",
          "name": "depositer",
          "type": "address"
        },
        {
          "indexed": false,
          "internalType": "uint256",
          "name": "depositBlock",
          "type": "uint256"
        },
        {
          "indexed": false,
          "internalType": "bool",
          "name": "success",
          "type": "bool"
        }
      ],
      "name": "Deposit",
      "type": "event"
    },
    {
      "anonymous": false,
      "inputs": [
        {
          "indexed": false,
          "internalType": "address",
          "name": "sender",
          "type": "address"
        },
        {
          "indexed": false,
          "internalType": "bool",
          "name": "refunded",
          "type": "bool"
        }
      ],
      "name": "Refund",
      "type": "event"
    },
    {
      "anonymous": false,
      "inputs": [
        {
          "indexed": false,
          "internalType": "address",
          "name": "winner",
          "type": "address"
        },
        {
          "indexed": false,
          "internalType": "uint256",
          "name": "claimBlock",
          "type": "uint256"
        },
        {
          "indexed": false,
          "internalType": "uint256",
          "name": "totalEth",
          "type": "uint256"
        },
        {
          "indexed": false,
          "internalType": "bool",
          "name": "success",
          "type": "bool"
        }
      ],
      "name": "Withdraw",
      "type": "event"
    },
    {
      "stateMutability": "nonpayable",
      "type": "fallback"
    },
    {
      "inputs": [],
      "name": "chest",
      "outputs": [
        {
          "internalType": "address",
          "name": "treasure",
          "type": "address"
        },
        {
          "internalType": "enum RButton.Access",
          "name": "access",
          "type": "uint8"
        },
        {
          "internalType": "uint256",
          "name": "value",
          "type": "uint256"
        }
      ],
      "stateMutability": "view",
      "type": "function"
    },
    {
      "inputs": [],
      "name": "claimTreasure",
      "outputs": [],
      "stateMutability": "payable",
      "type": "function"
    },
    {
      "inputs": [],
      "name": "getVaultEth",
      "outputs": [
        {
          "internalType": "uint256",
          "name": "total",
          "type": "uint256"
        }
      ],
      "stateMutability": "view",
      "type": "function"
    },
    {
      "inputs": [],
      "name": "pressButton",
      "outputs": [],
      "stateMutability": "payable",
      "type": "function"
    },
    {
      "stateMutability": "payable",
      "type": "receive"
    }
  ],
  "bytecode": "0x6080604052600030905060405180606001604052808273ffffffffffffffffffffffffffffffffffffffff1681526020016000600181111561003d57fe5b81526020016000815250600460008201518160000160006101000a81548173ffffffffffffffffffffffffffffffffffffffff021916908373ffffffffffffffffffffffffffffffffffffffff16021790555060208201518160000160146101000a81548160ff021916908360018111156100b457fe5b02179055506040820151816001015590505050610c00806100d66000396000f3fe6080604052600436106100435760003560e01c806364026ac0146101b1578063b03fd7451461020b578063c8b5da6614610236578063f335adb0146102405761014a565b3661014a576100876040518060400160405280600e81526020017f46756e64732053656e742062793a0000000000000000000000000000000000008152503361024a565b60003373ffffffffffffffffffffffffffffffffffffffff163460405180600001905060006040518083038185875af1925050503d80600081146100e7576040519150601f19603f3d011682016040523d82523d6000602084013e6100ec565b606091505b505090507f58b58f4b92f1c9fcc1002e781d496e6dc469da827fb41e5b92032ba9f97fc3c13382604051808373ffffffffffffffffffffffffffffffffffffffff16815260200182151581526020019250505060405180910390a150005b34801561015657600080fd5b507f58b58f4b92f1c9fcc1002e781d496e6dc469da827fb41e5b92032ba9f97fc3c1336000604051808373ffffffffffffffffffffffffffffffffffffffff16815260200182151581526020019250505060405180910390a1005b3480156101bd57600080fd5b506101c6610367565b604051808473ffffffffffffffffffffffffffffffffffffffff1681526020018360018111156101f257fe5b8152602001828152602001935050505060405180910390f35b34801561021757600080fd5b506102206103ac565b6040518082815260200191505060405180910390f35b61023e6103f0565b005b61024861058b565b005b610363828260405160240180806020018373ffffffffffffffffffffffffffffffffffffffff168152602001828103825284818151815260200191508051906020019080838360005b838110156102ae578082015181840152602081019050610293565b50505050905090810190601f1680156102db5780820380516001836020036101000a031916815260200191505b5093505050506040516020818303038152906040527f319af333000000000000000000000000000000000000000000000000000000007bffffffffffffffffffffffffffffffffffffffffffffffffffffffff19166020820180517bffffffffffffffffffffffffffffffffffffffffffffffffffffffff838183161783525050505061080a565b5050565b60048060000160009054906101000a900473ffffffffffffffffffffffffffffffffffffffff16908060000160149054906101000a900460ff16908060010154905083565b6000600460000160009054906101000a900473ffffffffffffffffffffffffffffffffffffffff1673ffffffffffffffffffffffffffffffffffffffff1631905090565b620186a03414610468576040517f08c379a00000000000000000000000000000000000000000000000000000000081526004018080602001828103825260158152602001807f4d6f72652045746865722069732072657175697265000000000000000000000081525060200191505060405180910390fd5b6000600181111561047557fe5b600460000160149054906101000a900460ff16600181111561049357fe5b14610506576040517f08c379a000000000000000000000000000000000000000000000000000000000815260040180806020018281038252600c8152602001807f5661756c7420636c6f736564000000000000000000000000000000000000000081525060200191505060405180910390fd5b61051c334360006108339092919063ffffffff16565b600061052734610a2a565b90507f693c1828300d1cab0919b948d714897f817e305af51c026ad14233b6a8939adb334383604051808473ffffffffffffffffffffffffffffffffffffffff1681526020018381526020018215158152602001935050505060405180910390a150565b600080610596610a48565b9150915060006002820190508273ffffffffffffffffffffffffffffffffffffffff163373ffffffffffffffffffffffffffffffffffffffff1614610626576040517f08c379a000000000000000000000000000000000000000000000000000000000815260040180806020018281038252602f815260200180610b9c602f913960400191505060405180910390fd5b80431161069b576040517f08c379a000000000000000000000000000000000000000000000000000000000815260040180806020018281038252601c8152602001807f496e73756666696369656e742074696d6520686173207061737365640000000081525060200191505060405180910390fd5b60006106a56103ac565b11610718576040517f08c379a00000000000000000000000000000000000000000000000000000000081526004018080602001828103825260198152602001807f4e6f20747265617375726520696e20746869732063686573740000000000000081525060200191505060405180910390fd5b600061072333610b1f565b90507fb97e775637eca8401af330efee0810af7079bafae27761741e09caa14db8d272334360046001015484604051808573ffffffffffffffffffffffffffffffffffffffff168152602001848152602001838152602001821515815260200194505050505060405180910390a180610804576040517f08c379a00000000000000000000000000000000000000000000000000000000081526004018080602001828103825260148152602001807f4661696c656420746f2073656e6420457468657200000000000000000000000081525060200191505060405180910390fd5b50505050565b60008151905060006a636f6e736f6c652e6c6f679050602083016000808483855afa5050505050565b8260030160008373ffffffffffffffffffffffffffffffffffffffff1673ffffffffffffffffffffffffffffffffffffffff16815260200190815260200160002060009054906101000a900460ff16156108d257808360010160008473ffffffffffffffffffffffffffffffffffffffff1673ffffffffffffffffffffffffffffffffffffffff16815260200190815260200160002081905550610a25565b60018360030160008473ffffffffffffffffffffffffffffffffffffffff1673ffffffffffffffffffffffffffffffffffffffff16815260200190815260200160002060006101000a81548160ff021916908315150217905550808360010160008473ffffffffffffffffffffffffffffffffffffffff1673ffffffffffffffffffffffffffffffffffffffff1681526020019081526020016000208190555082600001805490508360020160008473ffffffffffffffffffffffffffffffffffffffff1673ffffffffffffffffffffffffffffffffffffffff1681526020019081526020016000208190555082600001829080600181540180825580915050600190039060005260206000200160009091909190916101000a81548173ffffffffffffffffffffffffffffffffffffffff021916908373ffffffffffffffffffffffffffffffffffffffff1602179055505b505050565b60008160046001016000828254019250508190555060019050919050565b6000806000600160008001805490500390506000806000018281548110610a6b57fe5b9060005260206000200160009054906101000a900473ffffffffffffffffffffffffffffffffffffffff169050600060010160008273ffffffffffffffffffffffffffffffffffffffff1673ffffffffffffffffffffffffffffffffffffffff168152602001908152602001600020549250600080018281548110610aec57fe5b9060005260206000200160009054906101000a900473ffffffffffffffffffffffffffffffffffffffff16935050509091565b600080610b2a6103ac565b90508273ffffffffffffffffffffffffffffffffffffffff168160405180600001905060006040518083038185875af1925050503d8060008114610b8a576040519150601f19603f3d011682016040523d82523d6000602084013e610b8f565b606091505b5050809250505091905056fe436c61696d696e67207472656173757265206e6f7420617661696c61626c6520746f20746869732061646472657373a26469706673582212207ebd1a298bc5ea272ee8a903328e6f08bd20cb26b46c01b6d8d7c028df4c800e64736f6c63430007030033",
  "linkReferences": {},
  "deployedLinkReferences": {}
}