{
  "_format": "hh-sol-artifact-1",
  "contractName": "ProofOfExistence2",
  "sourceName": "contracts/ProofOfExistence2.sol",
  "abi": [
    {
      "inputs": [],
      "stateMutability": "nonpayable",
      "type": "constructor"
    },
    {
      "inputs": [
        {
          "internalType": "string",
          "name": "document",
          "type": "string"
        }
      ],
      "name": "checkDocument",
      "outputs": [
        {
          "internalType": "bool",
          "name": "",
          "type": "bool"
        }
      ],
      "stateMutability": "view",
      "type": "function"
    },
    {
      "inputs": [
        {
          "internalType": "string",
          "name": "document",
          "type": "string"
        }
      ],
      "name": "notarize",
      "outputs": [],
      "stateMutability": "nonpayable",
      "type": "function"
    },
    {
      "inputs": [
        {
          "internalType": "string",
          "name": "document",
          "type": "string"
        }
      ],
      "name": "proofFor",
      "outputs": [
        {
          "internalType": "bytes32",
          "name": "",
          "type": "bytes32"
        }
      ],
      "stateMutability": "pure",
      "type": "function"
    },
    {
      "inputs": [
        {
          "internalType": "bytes32",
          "name": "proof",
          "type": "bytes32"
        }
      ],
      "name": "storeProof",
      "outputs": [],
      "stateMutability": "nonpayable",
      "type": "function"
    }
  ],
  "bytecode": "0x608060405234801561001057600080fd5b506104df806100206000396000f3fe608060405234801561001057600080fd5b506004361061004c5760003560e01c806353fb9233146100515780637183616c146101225780638952877b1461019b578063f6c1acdf146101c9575b600080fd5b61010a6004803603602081101561006757600080fd5b810190808035906020019064010000000081111561008457600080fd5b82018360208201111561009657600080fd5b803590602001918460018302840111640100000000831117156100b857600080fd5b91908080601f016020809104026020016040519081016040528093929190818152602001838380828437600081840152601f19601f820116905080830192505050505050509192919290505050610298565b60405180821515815260200191505060405180910390f35b6101996004803603602081101561013857600080fd5b810190808035906020019064010000000081111561015557600080fd5b82018360208201111561016757600080fd5b8035906020019184600183028401116401000000008311171561018957600080fd5b90919293919293905050506102b7565b005b6101c7600480360360208110156101b157600080fd5b8101908080359060200190929190505050610316565b005b610282600480360360208110156101df57600080fd5b81019080803590602001906401000000008111156101fc57600080fd5b82018360208201111561020e57600080fd5b8035906020019184600183028401116401000000008311171561023057600080fd5b91908080601f016020809104026020016040519081016040528093929190818152602001838380828437600081840152601f19601f820116905080830192505050505050509192919290505050610342565b6040518082815260200191505060405180910390f35b6000806102a483610342565b90506102af81610453565b915050919050565b600061030683838080601f016020809104026020016040519081016040528093929190818152602001838380828437600081840152601f19601f82011690508083019250505050505050610342565b905061031181610316565b505050565b600081908060018154018082558091505060019003906000526020600020016000909190919091505550565b60006002826040516020018082805190602001908083835b6020831061037d578051825260208201915060208101905060208303925061035a565b6001836020036101000a0380198251168184511680821785525050505050509050019150506040516020818303038152906040526040518082805190602001908083835b602083106103e457805182526020820191506020810190506020830392506103c1565b6001836020036101000a038019825116818451168082178552505050505050905001915050602060405180830381855afa158015610426573d6000803e3d6000fd5b5050506040513d602081101561043b57600080fd5b81019080805190602001909291905050509050919050565b600080600090505b60008054905081101561049e57826000828154811061047657fe5b906000526020600020015414156104915760019150506104a4565b808060010191505061045b565b50600090505b91905056fea2646970667358221220b2afdf08800bc5fc696c533248e17d688fe6d31abf1fdcf1918fcf4e4530bd5a64736f6c63430007060033",
  "linkReferences": {},
  "deployedLinkReferences": {}
}