{
  "_format": "hh-sol-artifact-1",
  "contractName": "Lobby",
  "sourceName": "contracts/Lobby.sol",
  "abi": [
    {
      "inputs": [
        {
          "internalType": "uint256",
          "name": "_players",
          "type": "uint256"
        },
        {
          "internalType": "address",
          "name": "rButtonAddress",
          "type": "address"
        }
      ],
      "stateMutability": "nonpayable",
      "type": "constructor"
    },
    {
      "inputs": [],
      "name": "beginGame",
      "outputs": [],
      "stateMutability": "nonpayable",
      "type": "function"
    },
    {
      "inputs": [],
      "name": "joinGame",
      "outputs": [],
      "stateMutability": "nonpayable",
      "type": "function"
    }
  ],
  "bytecode": "0x608060405234801561001057600080fd5b50604051610a05380380610a058339818101604052604081101561003357600080fd5b8101908080519060200190929190805190602001909291905050508160008190555080600360006101000a81548173ffffffffffffffffffffffffffffffffffffffff021916908373ffffffffffffffffffffffffffffffffffffffff160217905550505061095e806100a76000396000f3fe608060405234801561001057600080fd5b50600436106100365760003560e01c8063d4f77b1c1461003b578063da0b068214610045575b600080fd5b61004361004f565b005b61004d6102ff565b005b60001515600260003373ffffffffffffffffffffffffffffffffffffffff1673ffffffffffffffffffffffffffffffffffffffff16815260200190815260200160002060009054906101000a900460ff16151514610115576040517f08c379a00000000000000000000000000000000000000000000000000000000081526004018080602001828103825260168152602001807f506c6179657220616c726561647920696e2067616d650000000000000000000081525060200191505060405180910390fd5b600073ffffffffffffffffffffffffffffffffffffffff16600160009054906101000a900473ffffffffffffffffffffffffffffffffffffffff1673ffffffffffffffffffffffffffffffffffffffff1614156101d057600360009054906101000a900473ffffffffffffffffffffffffffffffffffffffff16600160006101000a81548173ffffffffffffffffffffffffffffffffffffffff021916908373ffffffffffffffffffffffffffffffffffffffff1602179055505b600360009054906101000a900473ffffffffffffffffffffffffffffffffffffffff1673ffffffffffffffffffffffffffffffffffffffff1663c28b468f336040518263ffffffff1660e01b8152600401808273ffffffffffffffffffffffffffffffffffffffff168152602001915050600060405180830381600087803b15801561025b57600080fd5b505af115801561026f573d6000803e3d6000fd5b50505050600160008082825403925050819055506001600260003373ffffffffffffffffffffffffffffffffffffffff1673ffffffffffffffffffffffffffffffffffffffff16815260200190815260200160002060006101000a81548160ff0219169083151502179055506102fd6040518060600160405280602681526020016109036026913933610698565b565b60011515600260003373ffffffffffffffffffffffffffffffffffffffff1673ffffffffffffffffffffffffffffffffffffffff16815260200190815260200160002060009054906101000a900460ff161515146103c5576040517f08c379a00000000000000000000000000000000000000000000000000000000081526004018080602001828103825260188152602001807f4d75737420686176652061636365737320746f2067616d65000000000000000081525060200191505060405180910390fd5b600080541461043c576040517f08c379a00000000000000000000000000000000000000000000000000000000081526004018080602001828103825260148152602001807f416c6c2067616d6520736c6f74732074616b656e00000000000000000000000081525060200191505060405180910390fd5b60001515600360009054906101000a900473ffffffffffffffffffffffffffffffffffffffff1673ffffffffffffffffffffffffffffffffffffffff1663f7ca84316040518163ffffffff1660e01b815260040160206040518083038186803b1580156104a857600080fd5b505afa1580156104bc573d6000803e3d6000fd5b505050506040513d60208110156104d257600080fd5b8101908080519060200190929190505050151514610558576040517f08c379a00000000000000000000000000000000000000000000000000000000081526004018080602001828103825260148152602001807f4368657374206d75737420626520636c6f73656400000000000000000000000081525060200191505060405180910390fd5b6000600360009054906101000a900473ffffffffffffffffffffffffffffffffffffffff1673ffffffffffffffffffffffffffffffffffffffff16636f49a3c06040518163ffffffff1660e01b8152600401602060405180830381600087803b1580156105c457600080fd5b505af11580156105d8573d6000803e3d6000fd5b505050506040513d60208110156105ee57600080fd5b810190808051906020019092919050505090506106226040518060600160405280602681526020016108dd602691396107b5565b80610695576040517f08c379a00000000000000000000000000000000000000000000000000000000081526004018080602001828103825260108152602001807f47616d65206e6f7420737461727465640000000000000000000000000000000081525060200191505060405180910390fd5b50565b6107b1828260405160240180806020018373ffffffffffffffffffffffffffffffffffffffff168152602001828103825284818151815260200191508051906020019080838360005b838110156106fc5780820151818401526020810190506106e1565b50505050905090810190601f1680156107295780820380516001836020036101000a031916815260200191505b5093505050506040516020818303038152906040527f319af333000000000000000000000000000000000000000000000000000000007bffffffffffffffffffffffffffffffffffffffffffffffffffffffff19166020820180517bffffffffffffffffffffffffffffffffffffffffffffffffffffffff83818316178352505050506108b3565b5050565b6108b0816040516024018080602001828103825283818151815260200191508051906020019080838360005b838110156107fc5780820151818401526020810190506107e1565b50505050905090810190601f1680156108295780820380516001836020036101000a031916815260200191505b50925050506040516020818303038152906040527f41304fac000000000000000000000000000000000000000000000000000000007bffffffffffffffffffffffffffffffffffffffffffffffffffffffff19166020820180517bffffffffffffffffffffffffffffffffffffffffffffffffffffffff83818316178352505050506108b3565b50565b60008151905060006a636f6e736f6c652e6c6f679050602083016000808483855afa505050505056fe25732061646472657373206f6620706172747920696e766f6b696e6720626567696e47616d6525733a2061646472657373206f6620706172747920696e766f6b696e67206a6f696e47616d65a2646970667358221220ac5f8ad9ddc6e2a334cc8f06abf9a79cb872148b4e54851720994e6af1727a2a64736f6c63430007060033",
  "linkReferences": {},
  "deployedLinkReferences": {}
}