{
  "contractName": "RButton",
  "abi": [
    {
      "inputs": [],
      "stateMutability": "payable",
      "type": "constructor",
      "payable": true
    },
    {
      "anonymous": false,
      "inputs": [
        {
          "indexed": false,
          "internalType": "address",
          "name": "",
          "type": "address"
        }
      ],
      "name": "BadCall",
      "type": "event"
    },
    {
      "anonymous": false,
      "inputs": [
        {
          "indexed": false,
          "internalType": "address",
          "name": "depositer",
          "type": "address"
        },
        {
          "indexed": false,
          "internalType": "uint256",
          "name": "depositBlock",
          "type": "uint256"
        },
        {
          "indexed": false,
          "internalType": "bool",
          "name": "success",
          "type": "bool"
        }
      ],
      "name": "Deposit",
      "type": "event"
    },
    {
      "anonymous": false,
      "inputs": [
        {
          "indexed": false,
          "internalType": "address",
          "name": "winner",
          "type": "address"
        },
        {
          "indexed": false,
          "internalType": "uint256",
          "name": "claimBlock",
          "type": "uint256"
        },
        {
          "indexed": false,
          "internalType": "uint256",
          "name": "totalEth",
          "type": "uint256"
        },
        {
          "indexed": false,
          "internalType": "bool",
          "name": "success",
          "type": "bool"
        }
      ],
      "name": "Withdraw",
      "type": "event"
    },
    {
      "stateMutability": "nonpayable",
      "type": "fallback"
    },
    {
      "inputs": [],
      "name": "chest",
      "outputs": [
        {
          "internalType": "address",
          "name": "treasure",
          "type": "address"
        },
        {
          "internalType": "enum RButton.Access",
          "name": "access",
          "type": "uint8"
        },
        {
          "internalType": "uint256",
          "name": "value",
          "type": "uint256"
        }
      ],
      "stateMutability": "view",
      "type": "function",
      "constant": true
    },
    {
      "stateMutability": "payable",
      "type": "receive",
      "payable": true
    },
    {
      "inputs": [],
      "name": "pressButton",
      "outputs": [],
      "stateMutability": "payable",
      "type": "function",
      "payable": true
    },
    {
      "inputs": [],
      "name": "claimTreasure",
      "outputs": [],
      "stateMutability": "payable",
      "type": "function",
      "payable": true
    },
    {
      "inputs": [],
      "name": "getVaultEth",
      "outputs": [
        {
          "internalType": "uint256",
          "name": "total",
          "type": "uint256"
        }
      ],
      "stateMutability": "view",
      "type": "function",
      "constant": true
    }
  ],
  "bytecode": "0x6080604052600030905060405180606001604052808273ffffffffffffffffffffffffffffffffffffffff16815260200160006001811115610044576100436100da565b5b81526020016000815250600460008201518160000160006101000a81548173ffffffffffffffffffffffffffffffffffffffff021916908373ffffffffffffffffffffffffffffffffffffffff16021790555060208201518160000160146101000a81548160ff021916908360018111156100c2576100c16100da565b5b02179055506040820151816001015590505050610109565b7f4e487b7100000000000000000000000000000000000000000000000000000000600052602160045260246000fd5b610f92806101186000396000f3fe6080604052600436106100435760003560e01c806364026ac0146100cf578063b03fd745146100fc578063c8b5da6614610127578063f335adb01461013157610089565b36610089576100876040518060400160405280600e81526020017f46756e64732053656e742062793a0000000000000000000000000000000000008152503361013b565b005b34801561009557600080fd5b507f9a468924330166ed066116bd616a4bcd2fd05a970031c53ae81cfbaf8c6fc9e7336040516100c59190610923565b60405180910390a1005b3480156100db57600080fd5b506100e46101d7565b6040516100f3939291906109ce565b60405180910390f35b34801561010857600080fd5b5061011161021c565b60405161011e9190610a05565b60405180910390f35b61012f610260565b005b61013961037f565b005b6101d38282604051602401610151929190610ab9565b6040516020818303038152906040527f319af333000000000000000000000000000000000000000000000000000000007bffffffffffffffffffffffffffffffffffffffffffffffffffffffff19166020820180517bffffffffffffffffffffffffffffffffffffffffffffffffffffffff838183161783525050505061052e565b5050565b60048060000160009054906101000a900473ffffffffffffffffffffffffffffffffffffffff16908060000160149054906101000a900460ff16908060010154905083565b6000600460000160009054906101000a900473ffffffffffffffffffffffffffffffffffffffff1673ffffffffffffffffffffffffffffffffffffffff1631905090565b620186a034146102a5576040517f08c379a000000000000000000000000000000000000000000000000000000000815260040161029c90610b35565b60405180910390fd5b600060018111156102b9576102b861093e565b5b600460000160149054906101000a900460ff1660018111156102de576102dd61093e565b5b1461031e576040517f08c379a000000000000000000000000000000000000000000000000000000000815260040161031590610ba1565b60405180910390fd5b610334334360006105579092919063ffffffff16565b600061033f3461074e565b90507f693c1828300d1cab0919b948d714897f817e305af51c026ad14233b6a8939adb33438360405161037493929190610bdc565b60405180910390a150565b60008061038a610775565b91509150600060028261039d9190610c42565b90508273ffffffffffffffffffffffffffffffffffffffff163373ffffffffffffffffffffffffffffffffffffffff161461040d576040517f08c379a000000000000000000000000000000000000000000000000000000000815260040161040490610d0a565b60405180910390fd5b80431161044f576040517f08c379a000000000000000000000000000000000000000000000000000000000815260040161044690610d76565b60405180910390fd5b600061045961021c565b11610499576040517f08c379a000000000000000000000000000000000000000000000000000000000815260040161049090610de2565b60405180910390fd5b60006104a433610863565b90507fb97e775637eca8401af330efee0810af7079bafae27761741e09caa14db8d2723343600460010154846040516104e09493929190610e02565b60405180910390a180610528576040517f08c379a000000000000000000000000000000000000000000000000000000000815260040161051f90610e93565b60405180910390fd5b50505050565b60008151905060006a636f6e736f6c652e6c6f679050602083016000808483855afa5050505050565b8260030160008373ffffffffffffffffffffffffffffffffffffffff1673ffffffffffffffffffffffffffffffffffffffff16815260200190815260200160002060009054906101000a900460ff16156105f657808360010160008473ffffffffffffffffffffffffffffffffffffffff1673ffffffffffffffffffffffffffffffffffffffff16815260200190815260200160002081905550610749565b60018360030160008473ffffffffffffffffffffffffffffffffffffffff1673ffffffffffffffffffffffffffffffffffffffff16815260200190815260200160002060006101000a81548160ff021916908315150217905550808360010160008473ffffffffffffffffffffffffffffffffffffffff1673ffffffffffffffffffffffffffffffffffffffff1681526020019081526020016000208190555082600001805490508360020160008473ffffffffffffffffffffffffffffffffffffffff1673ffffffffffffffffffffffffffffffffffffffff1681526020019081526020016000208190555082600001829080600181540180825580915050600190039060005260206000200160009091909190916101000a81548173ffffffffffffffffffffffffffffffffffffffff021916908373ffffffffffffffffffffffffffffffffffffffff1602179055505b505050565b600081600460010160008282546107659190610c42565b9250508190555060019050919050565b60008060006001600080018054905061078e9190610eb3565b905060008060000182815481106107a8576107a7610ee7565b5b9060005260206000200160009054906101000a900473ffffffffffffffffffffffffffffffffffffffff169050600060010160008273ffffffffffffffffffffffffffffffffffffffff1673ffffffffffffffffffffffffffffffffffffffff1681526020019081526020016000205492506000800182815481106108305761082f610ee7565b5b9060005260206000200160009054906101000a900473ffffffffffffffffffffffffffffffffffffffff16935050509091565b60008061086e61021c565b90508273ffffffffffffffffffffffffffffffffffffffff168160405161089490610f47565b60006040518083038185875af1925050503d80600081146108d1576040519150601f19603f3d011682016040523d82523d6000602084013e6108d6565b606091505b50508092505050919050565b600073ffffffffffffffffffffffffffffffffffffffff82169050919050565b600061090d826108e2565b9050919050565b61091d81610902565b82525050565b60006020820190506109386000830184610914565b92915050565b7f4e487b7100000000000000000000000000000000000000000000000000000000600052602160045260246000fd5b6002811061097e5761097d61093e565b5b50565b600081905061098f8261096d565b919050565b600061099f82610981565b9050919050565b6109af81610994565b82525050565b6000819050919050565b6109c8816109b5565b82525050565b60006060820190506109e36000830186610914565b6109f060208301856109a6565b6109fd60408301846109bf565b949350505050565b6000602082019050610a1a60008301846109bf565b92915050565b600081519050919050565b600082825260208201905092915050565b60005b83811015610a5a578082015181840152602081019050610a3f565b83811115610a69576000848401525b50505050565b6000601f19601f8301169050919050565b6000610a8b82610a20565b610a958185610a2b565b9350610aa5818560208601610a3c565b610aae81610a6f565b840191505092915050565b60006040820190508181036000830152610ad38185610a80565b9050610ae26020830184610914565b9392505050565b7f4d6f726520457468657220697320726571756972650000000000000000000000600082015250565b6000610b1f601583610a2b565b9150610b2a82610ae9565b602082019050919050565b60006020820190508181036000830152610b4e81610b12565b9050919050565b7f5661756c7420636c6f7365640000000000000000000000000000000000000000600082015250565b6000610b8b600c83610a2b565b9150610b9682610b55565b602082019050919050565b60006020820190508181036000830152610bba81610b7e565b9050919050565b60008115159050919050565b610bd681610bc1565b82525050565b6000606082019050610bf16000830186610914565b610bfe60208301856109bf565b610c0b6040830184610bcd565b949350505050565b7f4e487b7100000000000000000000000000000000000000000000000000000000600052601160045260246000fd5b6000610c4d826109b5565b9150610c58836109b5565b9250827fffffffffffffffffffffffffffffffffffffffffffffffffffffffffffffffff03821115610c8d57610c8c610c13565b5b828201905092915050565b7f436c61696d696e67207472656173757265206e6f7420617661696c61626c652060008201527f746f207468697320616464726573730000000000000000000000000000000000602082015250565b6000610cf4602f83610a2b565b9150610cff82610c98565b604082019050919050565b60006020820190508181036000830152610d2381610ce7565b9050919050565b7f496e73756666696369656e742074696d65206861732070617373656400000000600082015250565b6000610d60601c83610a2b565b9150610d6b82610d2a565b602082019050919050565b60006020820190508181036000830152610d8f81610d53565b9050919050565b7f4e6f20747265617375726520696e207468697320636865737400000000000000600082015250565b6000610dcc601983610a2b565b9150610dd782610d96565b602082019050919050565b60006020820190508181036000830152610dfb81610dbf565b9050919050565b6000608082019050610e176000830187610914565b610e2460208301866109bf565b610e3160408301856109bf565b610e3e6060830184610bcd565b95945050505050565b7f4661696c656420746f2073656e64204574686572000000000000000000000000600082015250565b6000610e7d601483610a2b565b9150610e8882610e47565b602082019050919050565b60006020820190508181036000830152610eac81610e70565b9050919050565b6000610ebe826109b5565b9150610ec9836109b5565b925082821015610edc57610edb610c13565b5b828203905092915050565b7f4e487b7100000000000000000000000000000000000000000000000000000000600052603260045260246000fd5b600081905092915050565b50565b6000610f31600083610f16565b9150610f3c82610f21565b600082019050919050565b6000610f5282610f24565b915081905091905056fea26469706673582212208a454e487d7dcbbc30159255ae6d3dd5a070afecad049c1ba750ca9fbf748c7e64736f6c634300080a0033",
  "immutableReferences": {},
  "source": "// SPDX-License-Identifier: MIT\npragma solidity >=0.4.22 <0.9.0;\nimport \"./iterableMap.sol\";\nimport \"hardhat/console.sol\";\n\n/**\n\nImplemation of iterable map lib, allowing contract to save gas by not haveing to iterate\nthough array of addresses to access most resent address to invoke pressButton function\nO(1) vs O(N)\nless of an issue if this small of a contract. \n@dev Ad array would of sufficed, assuming you wanted to keep a tally of all addresses who have doned to contract\nas that information would be saved onchain either way \n@dev In retrospect, deposit and calinTreasure dont need returns because they return tx receipts\n*/\ncontract RButton {\n\tusing IterableMap for IterableMap.Map;\n\tenum Access {\n\t\tOpen,\n\t\tClosed\n\t}\n\tstruct Chest {\n\t\taddress treasure;\n\t\tAccess access;\n\t\tuint256 value;\n\t}\n\tIterableMap.Map private depositMap;\n\tChest public chest;\n\n\tevent Deposit(address depositer, uint256 depositBlock, bool success);\n\tevent Withdraw(address winner, uint256 claimBlock, uint256 totalEth, bool success);\n\tevent BadCall(address);\n\tmodifier minAccess() {\n\t\trequire(msg.value == 100000 wei, \"More Ether is require\");\n\t\trequire(chest.access == Access.Open, \"Vault closed\");\n\t\t_;\n\t}\n\tmodifier vaultAccess() {\n\t\t(address lastAddress, uint256 callerBlock) = getOwner();\n\t\tuint256 minBlock = callerBlock + 2;\n\t\trequire(msg.sender == lastAddress, \"Claiming treasure not available to this address\");\n\t\trequire(block.number > minBlock, \"Insufficient time has passed\");\n\t\trequire(getVaultEth() > 0, \"No treasure in this chest\");\n\t\t_;\n\t}\n\n\tconstructor() payable {\n\t\taddress treasure = payable(address(this));\n\t\tchest = Chest(treasure, Access.Open, 0);\n\t}\n\n\tfunction pressButton() public payable minAccess {\n\t\tdepositMap.set(msg.sender, block.number);\n\t\tbool success = increaseTreasure(msg.value);\n\t\temit Deposit(msg.sender, block.number, success);\n\t}\n\n\tfunction claimTreasure() public payable vaultAccess {\n\t\tbool sent = sendTreasure(msg.sender);\n\t\temit Withdraw(msg.sender, block.number, chest.value, sent);\n\t\trequire(sent, \"Failed to send Ether\");\n\t}\n\n\t/**\n@dev returns tuple\n@return claimer most recent wallet to have invoked pressButton\n@return lastBlockDepositd block in which the pressButton function was last invoked\n */\n\tfunction getOwner() private view returns (address claimer, uint256 lastBlockDepositd) {\n\t\tuint256 lastIndex = depositMap.keys.length - 1;\n\t\taddress lastAddress = depositMap.keys[lastIndex];\n\t\tlastBlockDepositd = depositMap.values[lastAddress];\n\t\tclaimer = depositMap.keys[lastIndex];\n\t}\n\n\t/**\n    future implemetations would set function to private to save gas\n    use externally for testing\n    @return total returns value in vault */\n\tfunction getVaultEth() public view returns (uint256 total) {\n\t\ttotal = chest.treasure.balance;\n\t}\n\n\tfunction increaseTreasure(uint256 value) internal returns (bool) {\n\t\tchest.value += value;\n\t\treturn true;\n\t}\n\n\tfunction sendTreasure(address recipient) internal returns (bool sent) {\n\t\tuint256 fullBalance = getVaultEth();\n\t\t(sent, ) = recipient.call{ value: fullBalance }(\"\");\n\t}\n\n\treceive() external payable {\n\t\tconsole.log(\"Funds Sent by:\", msg.sender);\n\t}\n\n\tfallback() external {\n\t\temit BadCall(msg.sender);\n\t}\n}\n",
  "sourcePath": "/Users/Darkwing/Desktop/Codesmith/githubclones/eco_rbutton/contracts/RButton.sol",
  "compiler": {
    "name": "solc",
    "version": "0.8.10+commit.fc410830.Emscripten.clang"
  },
  "schemaVersion": "3.4.4",
  "updatedAt": "2022-01-16T04:46:26.997Z",
  "networkType": "ethereum",
  "devdoc": {
    "details": "Ad array would of sufficed, assuming you wanted to keep a tally of all addresses who have doned to contract as that information would be saved onchain either way In retrospect, deposit and calinTreasure dont need returns because they return tx receipts",
    "kind": "dev",
    "methods": {
      "getVaultEth()": {
        "returns": {
          "total": "returns value in vault "
        }
      }
    },
    "version": 1
  },
  "userdoc": {
    "kind": "user",
    "methods": {
      "getVaultEth()": {
        "notice": "future implemetations would set function to private to save gas use externally for testing"
      }
    },
    "notice": "Implemation of iterable map lib, allowing contract to save gas by not haveing to iterate though array of addresses to access most resent address to invoke pressButton function O(1) vs O(N) less of an issue if this small of a contract. ",
    "version": 1
  }
}